:100000000C945A000C9479000C9479000C947900AB
:100010000C9479000C9479000C9479000C9479007C
:100020000C9479000C9479000C9479000C9479006C
:100030000C9479000C9479000C9479000C9479005C
:100040000C9479000C9479000C9479000C9479004C
:100050000C9479000C9479000C9479000C9479003C
:100060000C9479000C9479000C9479000C9479002C
:100070000C9479000C9479000C9479000C9479001C
:100080000C9479000C9479000C94790085018C0112
:100090009301BB01C201D401DB01ED01FF01150297
:1000A000860446025C02690286046D0386047104BC
:1000B0008604770411241FBECFEFD0E4DEBFCDBF8E
:1000C00011E0A0E0B1E0ECEBFCE000E00BBF02C00F
:1000D00007900D92AE30B107D9F721E0AEE0B1E064
:1000E00001C01D92AA31B207E1F70E948B040C9463
:1000F0005C060C940000CF93DF9300D01F92CDB725
:10010000DEB789837B836A8389818A3031F48A816F
:100110009B81BC018DE00E947B0080EC90E0FC01A3
:100120008081882F90E080729927892BB1F386EC2B
:1001300090E02981FC01208380E090E00F900F90F7
:100140000F90DF91CF9108950F931F93CF93DF937B
:1001500000D000D0CDB7DEB769837A838B839C83D0
:1001600080910E0190910F01A0911001B0911101A9
:100170009C01AD0169817A818B819C810E94C804B8
:10018000882309F477C020E030E0A90169817A81F1
:100190008B819C810E94C804882351F481E990E0FE
:1001A00021E930E0F90120812870FC01208309C099
:1001B00081E990E021E930E0F90120812360FC0130
:1001C000208328E539E344E75FE369817A818B8105
:1001D0009C810E94C804882344F488E990E02FEFB2
:1001E0003FEFFC013183208334C020E034E244EF50
:1001F00056E469817A818B819C810E94EA051816F8
:1002000034F488E990E0FC011182108222C008E9F0
:1002100010E020E030E040E053E469817A818B8196
:100220009C810E94EF05DC01CB019C01AD0160E0E7
:1002300074E284EF9AE40E94CD04DC01CB01BC019E
:10024000CD010E943F05DC01CB010197F8019183AC
:10025000808384E990E0FC011182108289819A8177
:10026000AB81BC8180930E0190930F01A09310018C
:10027000B093110100000F900F900F900F90DF913D
:10028000CF911F910F910895CF93DF93CDB7DEB734
:1002900080E990E020E4FC01208381E990E02BE0FC
:1002A000FC01208360E070E0CB010E94A40000000C
:1002B000DF91CF910895CF93DF93CDB7DEB780E97B
:1002C00090E0FC01108281E990E0FC0110820000C6
:1002D000DF91CF910895CF93DF93CDB7DEB78091B3
:1002E000170190911801CC01A0E0B0E040E050E08F
:1002F00029E030E0841B950B2817390708F4AAC0C1
:100300008A5B9F4FFC010C94BF0481E090E09093C6
:10031000180180931701A4C082E090E09093180127
:10032000809317019DC080911601823039F483E0DB
:1003300090E0909318018093170192C0809116016C
:10034000843039F485E090E0909318018093170190
:1003500087C080911601813039F487E090E0909356
:100360001801809317017CC082E090E090931801FF
:100370008093170175C084E090E0909318018093FA
:1003800017016EC080911601882339F482E090E055
:10039000909318018093170163C084E090E09093DC
:1003A0001801809317015CC086E090E090931801DB
:1003B0008093170155C080911601882339F482E09B
:1003C00090E090931801809317014AC086E090E076
:1003D000909318018093170143C0809116018823E0
:1003E00039F488E090E0909318018093170138C0A9
:1003F00087E090E0909318018093170131C08091BD
:100400001601882339F488E090E0909318018093D6
:10041000170125C080911601813009F589E090E02F
:1004200090931801809317011AC0809116018823B8
:1004300039F489E090E090931801809317010AC085
:1004400080911601813031F482E090E090931801A0
:1004500080931701109218011092170101C000003B
:100460008091170190911801CC01A0E0B0E040E02C
:1004700050E029E030E0841B950B2817390708F479
:1004800043C2805B9F4FFC010C94BF0481E08093CA
:10049000190164EA70ED82E893E40E94A40084EA02
:1004A00090EDA2E8B3E48093120190931301A0931E
:1004B0001401B09315012BC2809112019091130188
:1004C000A0911401B0911501BC01CD010E94A400BE
:1004D0001EC28091120190911301A0911401B0915C
:1004E000150124EA30ED42E853E4BC01CD010E943D
:1004F000C804882399F46BE774ED82E993E40E94C1
:10050000A4008BE794EDA2E9B3E4809312019093E9
:100510001301A0931401B0931501F9C18091120148
:1005200090911301A0911401B09115012BE734EDC6
:1005300042E953E4BC01CD010E94C804882399F428
:1005400064EA70ED84EA93E40E94A40084EA90EDEA
:10055000A4EAB3E48093120190931301A0931401D1
:10056000B0931501D4C18091120190911301A09113
:100570001401B091150124EA30ED44EA53E4BC01C2
:10058000CD010E94C804882399F461E77DE98EEAD1
:1005900093E40E94A40081E79DE9AEEAB3E480936E
:1005A000120190931301A0931401B0931501AFC1F0
:1005B0008091120190911301A0911401B091150145
:1005C00021E73DE94EEA53E4BC01CD010E94C80495
:1005D000882399F460E070E084EC93E40E94A40026
:1005E00080E090E0A4ECB3E48093120190931301B7
:1005F000A0931401B09315018AC1809112019091CA
:100600001301A0911401B091150120E030E044ECF9
:1006100053E4BC01CD010E94C804882399F460E032
:1006200070E08CED93E40E94A40080E090E0ACEDDB
:10063000B3E48093120190931301A0931401B0933B
:10064000150165C18091120190911301A0911401CF
:10065000B091150120E030E04CED53E4BC01CD0138
:100660000E94C804882399F464EA70EF86EF93E44B
:100670000E94A40084EA90EFA6EFB3E480931201F5
:1006800090931301A0931401B093150140C1809180
:10069000120190911301A0911401B091150124EA67
:1006A00030EF46EF53E4BC01CD010E94C80488231B
:1006B00009F02DC160E070ED82E094E40E94A40096
:1006C00080E090EDA2E0B4E48093120190931301D6
:1006D000A0931401B09315011AC180911201909159
:1006E0001301A0911401B09115012BE734ED42E9FB
:1006F00053E4BC01CD010E94C804882399F464EA44
:1007000070ED82E893E40E94A40084EA90EDA2E8F0
:10071000B3E48093120190931301A0931401B0935A
:100720001501F5C08091120190911301A09114015F
:10073000B091150124EA30ED44EA53E4BC01CD0147
:100740000E94C804882399F46BE774ED82E993E46E
:100750000E94A4008BE794EDA2E9B3E48093120118
:1007600090931301A0931401B0931501D0C0809110
:10077000120190911301A0911401B091150121E78C
:100780003DE94EEA53E4BC01CD010E94C804882330
:1007900099F464EA70ED84EA93E40E94A40084EA88
:1007A00090EDA4EAB3E48093120190931301A09317
:1007B0001401B0931501ABC0809112019091130107
:1007C000A0911401B091150120E030E044EC53E415
:1007D000BC01CD010E94C804882399F461E77DE93A
:1007E0008EEA93E40E94A40081E79DE9AEEAB3E4B7
:1007F0008093120190931301A0931401B0931501FB
:1008000086C08091120190911301A0911401B091C2
:10081000150120E030E04CED53E4BC01CD010E9415
:10082000C804882399F460E070E084EC93E40E94AB
:10083000A40080E090E0A4ECB3E4809312019093D4
:100840001301A0931401B093150161C080911201AE
:1008500090911301A0911401B091150124EA30EF99
:1008600046EF53E4BC01CD010E94C804882399F4EB
:1008700060E070E08CED93E40E94A40080E090E0E2
:10088000ACEDB3E48093120190931301A093140193
:10089000B09315013CC08091120190911301A09179
:1008A0001401B091150120E030ED42E054E4BC01A8
:1008B000CD010E94C804882309F029C064EA70EFC2
:1008C00086EF93E40E94A40084EA90EFA6EFB3E4DD
:1008D0008093120190931301A0931401B09315011A
:1008E00016C060E070E0CB010E94A40010C08091AF
:1008F000120190911301A0911401B0911501BC0156
:10090000CD010E94A40003C0000001C0000000004F
:10091000DF91CF910895CF93DF93CDB7DEB781E21A
:1009200090E0FC01108282E290E02FEFFC01208336
:1009300084E290E02FEFFC01208385E290E0FC014F
:10094000108284EA90EDA2E8B3E4809312019093C0
:100950001301A0931401B093150110921601109287
:100960001801109217010E94440180E290E0FC01FE
:1009700080818095809316010E946B01F6CFEE0F67
:10098000FF1F0024001C0BBE0790F691E02D099478
:100990000E94750508F481E008950E94E1040C941A
:1009A000B0050E94A90558F00E94A20540F029F464
:1009B0005F3F29F00C94990551110C94E4050C94B7
:1009C0009F050E94C10568F39923B1F3552391F364
:1009D000951B550BBB27AA2762177307840738F0AE
:1009E0009F5F5F4F220F331F441FAA1FA9F335D00B
:1009F0000E2E3AF0E0E832D091505040E695001CBF
:100A0000CAF72BD0FE2F29D0660F771F881FBB1F78
:100A1000261737074807AB07B0E809F0BB0B802D56
:100A2000BF01FF2793585F4F3AF09E3F510578F082
:100A30000C9499050C94E4055F3FE4F3983ED4F3DD
:100A4000869577956795B795F7959F5FC9F7880F56
:100A5000911D9695879597F90895E1E0660F771FA8
:100A6000881FBB1F621773078407BA0720F0621B39
:100A7000730B840BBA0BEE1F88F7E09508950E9464
:100A800046056894B1110C94E40508950E94C905C7
:100A900088F09F5798F0B92F9927B751B0F0E1F03F
:100AA000660F771F881F991F1AF0BA95C9F714C0EF
:100AB000B13091F00E94E305B1E008950C94E30594
:100AC000672F782F8827B85F39F0B93FCCF3869528
:100AD00077956795B395D9F73EF490958095709585
:100AE00061957F4F8F4F9F4F0895990F0008550FC5
:100AF000AA0BE0E8FEEF16161706E807F907C0F0A4
:100B000012161306E407F50798F0621B730B840BAB
:100B1000950B39F40A2661F0232B242B252B21F485
:100B200008950A2609F4A140A6958FEF811D811D25
:100B3000089597F99F6780E870E060E008959FEF5F
:100B400080EC089500240A94161617061806090664
:100B5000089500240A941216130614060506089533
:100B6000092E0394000C11F4882352F0BB0F40F4BB
:100B7000BF2B11F460FF04C06F5F7F4F8F4F9F4FFB
:100B8000089557FD9058440F551F59F05F3F71F07D
:100B90004795880F97FB991F61F09F3F79F08795E4
:100BA0000895121613061406551FF2CF4695F1DF6D
:100BB00008C0161617061806991FF1CF86957105FD
:100BC000610508940895E894BB2766277727CB0131
:100BD00097F908950E94750508F48FEF08950E9413
:100BE00002060C94B0050E94A20538F00E94A905E7
:100BF00020F0952311F00C9499050C949F05112475
:100C00000C94E4050E94C10570F3959FC1F3950F04
:100C100050E0551F629FF001729FBB27F00DB11D80
:100C2000639FAA27F00DB11DAA1F649F6627B00D10
:100C3000A11D661F829F2227B00DA11D621F739FF9
:100C4000B00DA11D621F839FA00D611D221F749F07
:100C50003327A00D611D231F849F600D211D822F4E
:100C6000762F6A2F11249F5750409AF0F1F0882375
:100C70004AF0EE0FFF1FBB1F661F771F881F9150A2
:100C80005040A9F79E3F510580F00C9499050C94B3
:100C9000E4055F3FE4F3983ED4F386957795679536
:100CA000B795F795E7959F5FC1F7FE2B880F911DCC
:0C0CB0009695879597F90895F894FFCF6A
:0E0CBC0000000002000000007B0000000000AD
:00000001FF
